:020000040800F2
:10000000B1AA010000000000000000000000000094
:10001000000000000000000000000000FC140008C8
:1000200000000000000000000000000000000000D0
:1000300000000000000000000000000000000000C0
:1000400000000000000000000000000000000000B0
:1000500000000000000000000000000000000000A0
:100060000000000000000000000000000000000090
:100070000000000000000000000000000000000080
:100080000000000000000000000000000000000070
:100090000000000000000000000000000000000060
:1000A0000000000000000000000000000000000050
:1000B0000000000000000000000000000000000040
:1000C0000000000000000000000000000000000030
:1000D0000000000000000000000000000000000020
:1000E0004E150008000000000000000000000000A5
:1000F0000000000000000000000000000000000000
:1001000000000000000000000000000000000000EF
:1001100000000000000000000000000000000000DF
:1001200000000000000000000000000000000000CF
:1001300000000000000000000000000000000000BF
:1001400000000000000000000000000000000000AF
:100150000000000000000000000000007370043088
:10016000170500001305C5FF8545F605637BB5003F
:1001700089816378B500170500001305C5002E9529
:1001800002859302002073A0027D970200009382F3
:1001900062E773907230973200009382E236739078
:1001A000C27E73E0C07E973200009382A22D7390CE
:1001B000523097110018938161A71781001813011D
:1001C00061E4174500001305A52A970500189385DB
:1001D00065E3170600181306262663FAC500832276
:1001E000050023A0550011059105E3EAC5FE17059A
:1001F00000181305652497150018938525A66377C5
:10020000B500232005001105E36DB5FE73F0023241
:10021000174500001305450297400000E78000FEE7
:1002200097400000E780E00497100000E78020D2AC
:100230000145814597000000E780402B17430000EF
:100240006700C3FC01A073E00232828073F00232C7
:0402500082800000A8
:10028000307800000A50726F6772616D2068617388
:1002900020657869746564207769746820636F6489
:1002A000653A00006E6D690A0000000074726170AA
:1002B0000A00000000000000000000000040AF4005
:1002C0000000000080844E4100FFFFFF000000009E
:1002D000B5000000ED000000FB000000FF00000082
:1002E000000100000001000000010000000100000A
:1002F00000010000000100000001000000010000FA
:1003000000010000000100000001000000010000E9
:1003100000010000000100000001000000000000DA
:1003200000010000B5000000620000003200000083
:10033000190000000D00000006000000030000008E
:1003400002000000010000000000000000000000AA
:10035000000000000000000000000000000000009D
:10036000000000000000000000000000000000008D
:1003700034370000843600008A36000084360000DE
:1003800026370000843600008A360000343700002B
:1003900034370000263700008A3600006A36000035
:1003A0006A3600006A3600008E3600003A3B0000D4
:1003B0003A3B0000523B0000343B0000343B00005D
:1003C000E03B0000523B0000343B0000E03B0000FB
:1003D000343B0000523B0000323B0000323B000047
:1003E000323B0000E03B0000000102020303030374
:1003F00004040404040404040505050505050505B5
:100400000505050505050505060606060606060694
:10041000060606060606060606060606060606067C
:100420000606060606060606070707070707070764
:10043000070707070707070707070707070707074C
:10044000070707070707070707070707070707073C
:10045000070707070707070707070707070707072C
:100460000707070707070707080808080808080814
:1004700008080808080808080808080808080808FC
:1004800008080808080808080808080808080808EC
:1004900008080808080808080808080808080808DC
:1004A00008080808080808080808080808080808CC
:1004B00008080808080808080808080808080808BC
:1004C00008080808080808080808080808080808AC
:1004D000080808080808080808080808080808089C
:1004E00008080808080808085D715AD8370B00206A
:1004F0005ED6930B0B4566D286C6A2C4A6C2CAC0FE
:100500004EDE52DC56DA62D46AD06ECE13870B40D0
:10051000930C0B4593070B4523A0070023A207006C
:10052000A107E39BE7FE014597100000E78000A5C7
:10053000054597100000E780005597100000E78000
:100540002057014597300000E78040D3370D002049
:1005500093078D5B370A0020B7290140096C416978
:100560003EC6130A8A6093890940854A130C4CE8F9
:100570009304000813090980014489454E859700BA
:100580000000E780A0586303550DE31894FE13059F
:10059000400697100000E78080B2014597300000C8
:1005A000E780C0CD97100000E780C01D93050008CC
:1005B00013050B4597100000E78020CA9730000014
:1005C000E78020DEDE8D014483A50D0003A54D00EC
:1005D000A10D97100000E780E0FCB306A040A186C3
:1005E000228622854A870504938686029305800227
:1005F00097300000E78040CFE31894FC9305000893
:1006000013050B4597100000E780E0E7B24723A0F1
:10061000070023A20700A107E31BFAFE5E8D014439
:10062000954D83250D0022857D46B3C5B503050490
:10063000210D9385850297300000E780A0C8E31262
:1006400094FE97100000E780E0133DB74E859700B9
:100650000000E780204B1305158093173400E697C0
:100660001357454089454E8598C323A2070097003C
:100670000000E780404A628597100000E78000B1E3
:10068000050485454E8597000000E780A045E316E8
:1006900094EEF5BD970700F89387C79689CB174569
:1006A0000000130565B917430000670023B5828079
:1006B000232005002322050023240500232605000E
:1006C000232A0500232C05008280D4419C419845B3
:1006D00083A8C50003A80501D58FD98FD449B3E7F6
:1006E00017011841904DB3E70701D58F8D669386AA
:1006F0000604758FD18FD98F1CC15C4D7D77130790
:10070000F77FF98F5CCD82801C4193E707041CC101
:1007100082804CC582801C410967D98F1CC10CC9DD
:10072000828008456D8D3335A0008280B717024066
:10073000135765003E9714438547B397A700D58F9D
:100740001CC38280B7170240135765003E971443BD
:100750008547B397A700D58F1CC38280B717024087
:10076000135765003E9714438547B397A70093C777
:10077000F7FFF58F1CC38280B7170240DC43374771
:10078000FFEF7D179546F98F6300D50263EBA60056
:100790000D476364A7003A05C98F371702405CC351
:1007A00082801D47E31BE5FE31773A05798D5D8D2B
:1007B000B7070010C98F371702405CC38280411110
:1007C000B727014006C693870740630BF500B7378C
:1007D0000140938707806303F502B24041018280A4
:1007E0001305903097000000E78000F6B240130533
:1007F0009030410117030000670083F61305A03015
:1008000097000000E78040F4B2401305A03041019A
:10081000170300006700C3F4B727014003A7474050
:10082000B706F1FFFD16758F23A2E74003A74740E7
:10083000598D23A2A740828093F705100DC699EF2A
:1008400093F7054089C75C4193E707405CC18989FC
:1008500085CD1C4593E727001CC582805C4193E74A
:1008600007105CC1F1BF89C75C4193F7F7EF5CC12A
:1008700093F7054089C75C4193F7F7BF5CC189894D
:1008800081C51C45F59B1CC582801C4599C5056723
:1008900013070780D98F1CC582807D771307F77FE8
:1008A000F98F1CC582801C45858B89E71C4593E721
:1008B00017001CC582801C451307850093E787003D
:1008C0001CC51C43A18BF5FF1C4593E747001CC5C5
:1008D0001C43918BF5FF8280372701408327874097
:1008E000B7068000D58F2324F74082808547638533
:1008F000F50289476391F5021C5D3707D0FF7D172C
:10090000F98F1CDD1C5D7D16520637073000798E8D
:100910005D8E10DD828082805C55370710FF7D1769
:10092000F98F5CD55C557D1652063707F000798E3D
:100930005D8E50D58280954763E2B704939725007A
:10094000BE955859FD47B397B70093C7F7FFF98F86
:10095000B315B600DD8D4CD9A54763E6C7049317E0
:1009600016003E9618499D47B397C70093C7F7FFF7
:10097000F98F3396C6005D8E10C98280AD4763E75C
:10098000B704E91593972500BE951859FD47B3970D
:10099000B70093C7F7FFF98FB315B600DD8D0CD9FB
:1009A000A547E3FEC7FAC54763E1C7025916131707
:1009B00016004C453A969D47B397C70093C7F7FF7B
:1009C000ED8F3396C6005D8E50C58280BD47E3E54E
:1009D000B7F8D11593972500BE955855FD47B397A5
:1009E000B70093C7F7FFF98FB315B600DD8D4CD56F
:1009F000A5B71C5D185DD1838D8BB385B7409397E8
:100A00002500BE95B305B040BD05FD47B397B700BF
:100A100093C7F7FFF98FB315B600DD8D0CDDA54741
:100A200063E1C702131716000C493A969D47B39726
:100A3000C70093C7F7FFED8FB396C600DD8E14C9CC
:100A40008280C54763E1C7025916131716004C454B
:100A50003A969D47B397C70093C7F7FFED8FB396BC
:100A6000C600DD8E54C582808547638FF5008947B7
:100A7000639BF5001C4565777D17F98F1CC51C45E8
:100A80005D8E10C5828082801C453707F2FF7D177E
:100A9000F98F1CC51C455D8E10C5828093F715002B
:100AA0000DC281EB898989CD1C452167D98F1CC571
:100AB00082801C45370710008989D98F1CC5EDF548
:100AC000828099C71C453707F0FF7D17F98F1CC539
:100AD0008989FDD51C4561777D17F98F1CC58280FA
:100AE00093F7150091C71C4537074000D98F1CC5E7
:100AF000898991C51C4537072000D98F1CC5828084
:100B0000684542054181828008416D8D3335A000E2
:100B100082801C4193C5F5FFFD8D0CC1828093F549
:100B2000F51F4CC1828093D7650093F7F73F3E9540
:100B300008413355B5000589828093F7050193F884
:100B4000F50099C3B3E8C8008147854E3D4E930F29
:100B50008002930280042143139627003397FE00FE
:100B60003318CE00758F1348F8FF3396C80001CFB5
:100B7000032F05003378E80133660601638FF5051E
:100B80006389550410C18507E39867FC854E3D4E87
:100B9000930F8002930280044143139727000117AB
:100BA0003396FE003318EE00758E1348F8FF339726
:100BB000E80001CE032F45003378E80133670701D1
:100BC000638FF5016389550058C18507E39767FC7A
:100BD000828018C945BF10C9C5BF58C965B750C97B
:100BE000E5B70CC982804CC98280B7170240984390
:100BF000B706FFE0B1061367170098C3D84337065E
:100C0000F7EA7D16758FD8C39843B706F7FEFD1631
:100C1000758F98C39843B706FCFFFD16758F98C370
:100C2000D843B70601DFFD16758FD8C323A6070288
:100C300094433707FF00C165F18E94C398C798436A
:100C40009386F5FF371602404D8F98C311A099C6C1
:100C50001C42FD161397E700E35B07FEB71702403F
:100C600098439316E70063D0060AD8433706C4DFDB
:100C70007D16D8C3D843B7160240D8C3D8431367EC
:100C80000740D8C3D843718FD8C3D843370629202B
:100C9000518FD8C3D8573D76718FD8D7D857416672
:100CA000130616F1518FD8D7984337060004518F99
:100CB00098C39C4213974700E35D07FE9C423706AA
:100CC000001037170240D18F9CC21C439396270017
:100CD000E3DD06FE144337060001B7170240D18E4C
:100CE00014C3984393166700E3DD06FED843B71696
:100CF0000240719BD8C3D84313672700D8C3DC4296
:100D0000A18BF5DF828001A0797156CAAE8AB70542
:100D1000000809469385052822D426D24AD04ECE13
:100D200052CC06D62A8A714497300000E780005BD7
:100D3000BD492549F15405A093F7F60F71140546F6
:100D40009305F1005285A307F10097300000E7807A
:100D5000E058630F9402B3978900B3F75701B3D7F4
:100D6000870093F7F70F9386070313877703E375DD
:100D7000F9FC9377F70F711405469305F10052853E
:100D8000A307F10097300000E7804055E31594FC7D
:100D9000B250225492540259F249624AD24A4561F1
:100DA0008280411122C43744014026C29375F50F59
:100DB000AA841305048006C613040480970000006B
:100DC000E78020D69D45228597000000E780E0D58A
:100DD00075D9B24022442685924441018280011196
:100DE0004EC606CE22CC26CA4AC8B28915C22E8467
:100DF0003389C500A9440345040005049700000099
:100E0000E78060FA8347F4FF638C9700E31524FFC3
:100E1000F24062444E85D2444249B2490561828023
:100E2000354597000000E78000F8E31624FDCDB7B4
:100E3000B70700089387472803AF070083AE470032
:100E400003AE870003A3C70083A8070103A84701D7
:100E5000944F03D7C70183C7E7017971794622D43C
:100E60008A852A84094506D67AC076C272C41AC613
:100E700046C842CA36CC231EE100230FF10097304A
:100E80000000E780A045A285094597000000E780A3
:100E9000E0E7B705000805469385052B094597301F
:100EA0000000E780A04301A0B70700D1D8438843E2
:100EB000CC43E39DE5FE8280370700D22300070084
:100EC0001205B71700D2A30507003E9563F7A700E8
:100ED00023A00700C107E3EDA7FE8280F32750306F
:100EE00093F707FC93E73700739057308280B7057C
:100EF0000008411115469385452A054506C69730D9
:100F00000000E780A03D054597000000E78080F2E3
:100F100041119347F5FF22C406C6139747012A845F
:100F200005C3B705000815469385C52A05459730C2
:100F30000000E780A03A228597000000E78080EF5C
:100F400097000000E780E0FAE9BF411106C697006C
:100F50000000E780C0C91305700597000000E78016
:100F6000E0F597000000E780A0F7B240410117F3D9
:100F7000FFFF6700832D8280411126C2AA841305DA
:100F8000206006C622C497F0FFFFE780607A130551
:100F9000906097F0FFFFE780A0790D4597F0FFFF85
:100FA000E780C07D37150140A146414681451305C4
:100FB000058097000000E78080B8372401401305C2
:100FC000044097F0FFFFE780C07F014597000000D5
:100FD000E780C0840146894513050440970000005E
:100FE000E780C08501469305001013050440970073
:100FF0000000E780A08481451305044097000000AD
:10100000E780E08805468545130504409700000009
:10101000E780008E89460D46814513050440970000
:101020000000E780809137060E00854513050440D7
:1010300097000000E78080A305468545130504401E
:1010400097000000E780C0A595E83724014013050C
:10105000044097000000E780408513050440970096
:101060000000E7808085130504402244B24092448A
:1010700085454101170300006700C3A6130504401E
:1010800005469305004097F0FFFFE780207B13059E
:1010900004400546894597000000E7806085970079
:1010A0000000E780A0839D4641468145130504402A
:1010B00097000000E780209449BF79714AD04ECE56
:1010C0005EC606D622D426D252CC56CA5AC862C4AC
:1010D00066C2AA8B97000000E78040DD2A89AE89AE
:1010E00097000000E78080DC2A84AE846314A900A6
:1010F000E388B9FEB707000803A9872B83A9C72B8C
:10110000370B002097000000E78040DAAA87018DA6
:10111000B3B7A700858D9D8D97300000E780A0EEC6
:101120002A8A03258B42AE8A97300000E78040E888
:101130004A86CE8697200000E78020442A8C5E8570
:10114000AE8C97300000E780A0E62A86AE866285E6
:10115000E68597300000E780E0A02A86AE865285BB
:10116000D68597300000E780A095E34D05F8B25092
:10117000225492540259F249624AD24A424BB24B2B
:10118000224C924C4561828079714AD04ECE5EC627
:1011900006D622D426D252CC56CA5AC862C466C2D7
:1011A000AA8B97000000E78060D02A89AE8997005B
:1011B0000000E780A0CF2A84AE846314A900E388EE
:1011C000B9FEB707000803A9072C83A9472C370BE2
:1011D000002097000000E78060CDAA87018DB3B79B
:1011E000A700858D9D8D97300000E780C0E12A8A99
:1011F00003258B42AE8A97300000E78060DB4A8689
:10120000CE8697200000E78040372A8C5E85AE8C22
:1012100097300000E780C0D92A86AE866285E685D1
:1012200097300000E78000942A86AE865285D685E6
:1012300097300000E780C088E34D05F8B250225493
:1012400092540259F249624AD24A424BB24B224C62
:10125000924C4561828013D81540B3E7050113D73E
:101260002740D98F13D74740D98F13D7874079713B
:10127000D98F4ED093D90741B3E9370156CC22D646
:1012800026D44AD252CE5ACA5EC862C666C46AC260
:101290006EC093D91940AA8A1385E5FF6380091EA1
:1012A00081471387F9FFB3F9E9008507E39B09FE3E
:1012B000BE896357A00413868A004287854663D59A
:1012C000E6028328060093173700D69703A307008A
:1012D00023A01701032E460083A8470023A2C701BD
:1012E0002320660023221601C287634607011D8F53
:1012F0008587E35EF7FE85063E972106E351D5FC20
:10130000635F3015370D0020B70C0020130D8D439F
:10131000938C4C43930700100145B70B0008370B23
:1013200000082320FD0023A00C00054985091304B3
:1013300000F00147054A894F054C938B8B2C130B0A
:10134000CB313305A04063512011931439009383AE
:101350008A00139F3F008142014E930E0010E1145A
:101360001683338874001E8763D1B2068327080072
:1013700003264800832887FFB38DD7037E93B306E7
:10138000C60393DD8D40B387C703A186B386DD40D6
:10139000B388D840232018018328C7FF3306D6031B
:1013A000A1872186B297B388F840232218018328A9
:1013B00087FF0326C7FF7A98C696B297232CD7FEDD
:1013C000232EF7FE7A97E343B3FAB3878E028502A2
:1013D000A103B306C503A1873307D503A186958F63
:1013E000BE8E330E8E022187135E8E403A9EE31925
:1013F00059F6050A0547630F3A05B31F4C0113D987
:101400001F4093D72F40B3E7270113D72740D98F29
:1014100013D74740D98F13D78740D98F13D70741A8
:10142000D98F8587014791C79386F7FFF58F050709
:10143000E5FF0A07B387EB005A9708438043054747
:101440003305A040E34320F1050A014E9307001045
:10145000E3153AFB09C72320FD0023A0CC01325439
:10146000A25412598259724AE24A524BC24B324C30
:10147000A24C124D824D014545618280E34DA0E2B0
:10148000F9BF411106C622C426C24AC0635DB0043A
:10149000939435002E89AA862A84AA94AA87D843D1
:1014A000A1073307E04023AEE7FEE39A97FECA8523
:1014B000368597000000E78040DA5C401840210440
:1014C000B307F04033472703B3C72703232CE4FEB9
:1014D000232EF4FEE31394FEB240224492440249C8
:1014E00001454101828097000000E78000D7B240AB
:1014F00022449244024901454101828039713ECC27
:10150000B707002083A7C74306DE16DC1ADA1ED809
:101510002AD62ED432D236D03ACE42CA46C872C665
:1015200076C47AC27EC08297F250E2525253C253BE
:101530003255A255125682567247E2475248C24867
:10154000324EA24E124F824F21617300203039710A
:101550003ECCB707002083A7074406DE16DC1ADA64
:101560001ED82AD62ED432D236D03ACE42CA46C857
:1015700072C676C47AC27EC08297F250E25252534B
:10158000C2533255A255125682567247E24752480C
:10159000C248324EA24E124F824F2161730020305A
:1015A0009357F54113D7F5413D8DB98D1D8D998D1B
:1015B00081473D4631A08507B695198D638DC700DB
:1015C000B356F54033D7F540E347A0FE8507958D28
:1015D0003A95E397C7FE13952500AA9513955500F4
:1015E0000D8D2181828079714AD04ECE5EC606D69D
:1015F00022D426D252CC56CA5AC862C466C2AA8B1A
:1016000097000000E780808A2A89AE899700000051
:10161000E780C0892A84AE846314A900E388B9FEF8
:10162000B707000803A9872B83A9C72B370B002016
:1016300097000000E7808087AA87018DB3B7A700D5
:10164000858D9D8D97300000E780E09B2A8A0325D9
:101650008B42AE8A97300000E78080954A86CE861E
:1016600097200000E78060F12A8C5E85AE8C973071
:101670000000E780E0932A86AE866285E6859720A3
:101680000000E780204E2A86AE865285D6859720B8
:101690000000E780E042E34D05F8B2502254925436
:1016A0000259F249624AD24A424BB24B224C924C06
:1016B00045618280411122C4370400201304844410
:1016C000B7070020184083A7C74406C626C263098F
:1016D000F7083745004089451305058097F0FFFF5F
:1016E000E780600411E5B2402244924441018280C7
:1016F00089653715014097F0FFFFE780004F1C40D8
:10170000B7140020938404858A07A697984393070B
:10171000F00FA1653715014063CFE70497F0FFFF95
:10172000E780A04C1C403745004013050580139707
:101730002700BA9483C5040085071CC097F0FFFFFB
:10174000E78060FD1C40B240924413D7F7416183AB
:10175000BA9793F7F70F998F1CC0224441018280FA
:101760002244B2409244896537150140410117F384
:10177000FFFF6700434797F0FFFFE780C0465DB774
:10178000411122C426C237040020B70400209384EC
:1017900084441304C44498401C4006C6630AF700FE
:1017A00097000000E78040F198401C40E31AF7FEE4
:1017B000B2402244924441018280011122CC37047C
:1017C00000201304C444104026CAB70400201307A5
:1017D00016009357F741E183938484443E978C40ED
:1017E0001377F70F4EC652C406CE135A85404AC827
:1017F000B307F740AA89130A0A106395B702970046
:101800000000E78060EB10408C40130716009357F0
:10181000F74193D68701B307D70093F7F70F958F5A
:10182000E38FB7FC9386170013D7F6411355870152
:1018300037190020130909850A063387A6004A963E
:101840001377F70F93F9F90F232046011CC0098F76
:10185000938909106393E50297000000E780C0E5D3
:101860001C409040138717009356F741E18236974A
:101870001377F70F158FE301C7FE18C0F2406244DB
:101880008A07CA9723A03701D2444249B249224A63
:1018900005618280797122D4370400201304C44486
:1018A0000328040056CAB70A0020130718009357EC
:1018B000F74193D88701938A8A44B307170103A796
:1018C0000A0093F7F70F4AD04ECE5AC85EC606D626
:1018D00026D252CCB3871741AA8BAE89328B368978
:1018E0006395E70297000000E78000DD032804000D
:1018F00083A60A009307180013D7F7416183BA97AC
:1019000093F7F70F998FE38FD7FC370A0020130A5C
:101910004A4403452A00B7140020938404850A082A
:101920001307A00226985E952320E8001CC09700AC
:101930000000E780C0E803452A005A9597000000A0
:10194000E780E0E7144083A50A0013871600935749
:10195000F74113D68701B307C70093F7F70F918FAD
:101960006394B70297000000E78000D5144003A6F7
:101970000A009387160013D7F7416183BA9793F74C
:10198000F70F998FE380C7FE03453A008A06A696B3
:101990001307B0024E9598C21CC097000000E78064
:1019A00000E203453A004A9597000000E78020E1F5
:1019B000144083A50A00138716009357F74113D6E6
:1019C0008701B307C70093F7F70F918F6394B702AE
:1019D00097000000E78040CE144003A60A009387DA
:1019E000160013D7F7416183BA9793F7F70F998FD2
:1019F000E380C7FE1CC0B25022548A06A696130785
:101A0000C00298C292540259F249624AD24A424BE9
:101A1000B24B45618280797189653715014006D6E0
:101A200022D497F0FFFFE780001C480097F0FFFFEB
:101A3000E78040C8930740103EC28D4737440040BE
:101A40003ECC930700204C00130504803EC8A147FC
:101A50003ECE02C402C602CA97F0FFFFE78020C74D
:101A6000130504809D4597F0FFFFE78000CB130529
:101A7000048097F0FFFFE78060C9B25022544561AF
:101A8000828009E9B707011A37070020850723225A
:101A9000F74482808547631AF500B70700183707B7
:101AA0000020938717102322F744828001114EC62D
:101AB000B70900209389494483C7090006CE22CC88
:101AC00026CA4AC891E7B707011A850723A0F9007B
:101AD0001305306097F0FFFFE78080C51305406075
:101AE00097F0FFFFE780C0C41305006097F0FFFF89
:101AF000E78000C41305E07097F0FFFFE78040C364
:101B000037150140B9660D46E145130505C097F04C
:101B1000FFFFE780C002A9660D46C14537150140A9
:101B200097F0FFFFE780A00197000000E780E0EE5C
:101B3000A96537150140B70400203704002097F04D
:101B4000FFFFE780800A938484441304C4449840D0
:101B50001C40630AF70097000000E780E0B598405A
:101B60001C40E31AF7FE1305400697000000E780CB
:101B7000C0A714408C40138716009357F74113D623
:101B80008701B307C70093F7F70F918F6393B702ED
:101B900097000000E78040B2144090409387160001
:101BA00013D7F7416183BA9793F7F70F998FE381C2
:101BB000C7FE37170020130907858A06CA9605470E
:101BC00098C21CC097000000E78000AF98401C40FE
:101BD000E31AF7FE1305800797000000E780E0A0F6
:101BE00014408C40138716009357F74113D6870192
:101BF000B307C70093F7F70F918F6393B70297006E
:101C00000000E78060AB144090409387160013D724
:101C1000F7416183BA9793F7F70F998FE381C7FE76
:101C20008A06CA96454798C21CC097000000E78004
:101C3000A0A898401C40E31AF7FE13054006970041
:101C40000000E780809A83C7190099E76F10605DF4
:101C500097000000E78040A60C409C4013871500C9
:101C60009356F74113D68601B306C70093F6F60FD5
:101C7000918EE38FF6FC8A05CA951307200298C15E
:101C8000138716009355F74113D68501B305C70096
:101C900093F5F50F14C0918D6394F5006F10205BE0
:101CA000138715001356F741135586013306A70015
:101CB0008A06CA961376F60F1307100B98C20CC04B
:101CC000098E6395C70297000000E780E09E0C40F4
:101CD0009C40138715001356F7419356860133062F
:101CE000D7001376F60F158EE30FF6FC13071600D8
:101CF0009356F74113D58601B306A7008A05CA9506
:101D000093F6F60F1307501098C110C0898E639593
:101D1000D70297000000E780209A10409C401307EC
:101D200016009356F74193D58601B306B70093F694
:101D3000F60F8D8EE38FF6FC138716009355F7414F
:101D400013D58501B305A7000A064A9693F5F50F4A
:101D50001307A01318C214C0898D6395B7029700AA
:101D60000000E780609514409C401387160093554F
:101D7000F74113D68501B305C70093F5F50F918D93
:101D8000E38FF5FC138715001356F74113558601B1
:101D90003306A7008A06CA961376F60F1307A01318
:101DA00098C20CC0098E6395C70297000000E780B7
:101DB000A0900C409C40138715001356F741935692
:101DC00086013306D7001376F60F158EE30FF6FC67
:101DD000130716009356F74113D58601B306A700E3
:101DE0008A05CA9593F6F60F1307200B98C110C009
:101DF000898E6395D70297000000E780E08B104042
:101E00009C40130716009356F74193D58601B306FD
:101E1000B70093F6F60F8D8EE38FF6FC138716004E
:101E20009355F74113D58501B305A7000A064A96D5
:101E300093F5F50F1307501018C214C0898D6395E0
:101E4000B70297000000E780208714409C4013876A
:101E500016009355F74113D68501B305C70093F5D6
:101E6000F50F918DE38FF5FC138715001356F7419D
:101E7000135586013306A7008A06CA961376F60F15
:101E80001307A01398C20CC0098E6395C702970070
:101E90000000E78060820C409C40138715001356B9
:101EA000F741935686013306D7001376F60F158E49
:101EB000E30FF6FC130716009356F74113D586017E
:101EC000B306A7008A05CA9593F6F60F1307A01369
:101ED00098C110C0898E6395D70297F0FFFFE78005
:101EE000A07D10409C40130716009356F74193D5F0
:101EF0008601B306B70093F6F60F8D8EE38FF6FCDE
:101F0000138716009355F74113D58501B305A70034
:101F10000A064A9693F5F50F1307300B18C214C042
:101F2000898D6395B70297F0FFFFE780E078144052
:101F30009C40138716009355F74113D68501B305CE
:101F4000C70093F5F50F918DE38FF5FC138715000E
:101F50001356F741135586013306A7008A06CA9621
:101F60001376F60F1307501098C20CC0098E6395B4
:101F7000C70297F0FFFFE78020740C409C40138756
:101F800015001356F741935686013306D700137692
:101F9000F60F158EE30FF6FC130716009356F74164
:101FA00013D58601B306A7008A05CA9593F6F60FE6
:101FB0001307A01398C110C0898E6395D70297F0BC
:101FC000FFFFE780606F10409C4013071600935698
:101FD000F74193D58601B306B70093F6F60F8D8EC1
:101FE000E38FF6FC138716009355F74113D585014F
:101FF000B305A7000A064A9693F5F50F1307A01339
:1020000018C214C0898D6395B70297F0FFFFE7806F
:10201000A06A14409C40138716009355F74113D6CD
:102020008501B305C70093F5F50F918DE38FF5FC9E
:10203000138715001356F741135586013306A70081
:102040008A06CA961376F60F1307501098C20CC072
:10205000098E6395C70297F0FFFFE780E0650C40AB
:102060009C40138715001356F7419356860133069B
:10207000D7001376F60F158EE30FF6FC1307160044
:102080009356F74113D58601B306A7008A05CA9572
:1020900093F6F60F1307A01398C110C0898E6395AD
:1020A000D70297F0FFFFE780206110409C401307A4
:1020B00016009356F74193D58601B306B70093F601
:1020C000F60F8D8EE38FF6FC138716009355F741BC
:1020D00013D58501B305A7000A064A9693F5F50FB7
:1020E0001307A01318C214C0898D6395B70297F027
:1020F000FFFFE780605C14409C40138716009355F7
:10210000F74113D68501B305C70093F5F50F918DFF
:10211000E38FF5FC138715001356F741135586011D
:102120003306A7008A06CA961376F60F1307400BEC
:1021300098C20CC0098E6395C70297F0FFFFE78035
:10214000A0570C409C40138715001356F741935637
:1021500086013306D7001376F60F158EE30FF6FCD3
:10216000130716009356F74113D58601B306A7004F
:102170008A05CA9593F6F60F1307301098C110C060
:10218000898E6395D70297F0FFFFE780E0521040F9
:102190009C40130716009356F74193D58601B3066A
:1021A000B70093F6F60F8D8EE38FF6FC13871600BB
:1021B0009355F74113D58501B305A7000A064A9642
:1021C00093F5F50F1307000C18C214C0898D6395A1
:1021D000B70297F0FFFFE780204E14409C40138722
:1021E00016009355F74113D68501B305C70093F543
:1021F000F50F918DE38FF5FC138715001356F7410A
:10220000135586013306A7008A06CA961376F60F81
:102210001307201698C20CC0098E6395C70297F069
:10222000FFFFE78060490C409C4013871500135660
:10223000F741935686013306D7001376F60F158EB5
:10224000E30FF6FC130716009356F74113D58601EA
:10225000B306A7008A05CA9593F6F60F1307201058
:1022600098C110C0898E6395D70297F0FFFFE78071
:10227000A04410409C40130716009356F74193D595
:102280008601B306B70093F6F60F8D8EE38FF6FC4A
:10229000138716009355F74113D58501B305A700A1
:1022A0000A064A9693F5F50F1307401018C214C09A
:1022B000898D6395B70297F0FFFFE780E03F1440F8
:1022C0009C40138716009355F74113D68501B3053B
:1022D000C70093F5F50F918DE38FF5FC138715007B
:1022E0001356F741135586013306A7008A06CA968E
:1022F0001376F60F1307100C98C20CC0098E639565
:10230000C70297F0FFFFE780203B0C409C401387FB
:1023100015001356F741935686013306D7001376FE
:10232000F60F158EE30FF6FC130716009356F741D0
:1023300013D58601B306A7008A05CA9593F6F60F52
:102340001307001C98C110C0898E6395D70297F0BF
:10235000FFFFE780603610409C401307160093563D
:10236000F74193D58601B306B70093F6F60F8D8E2D
:10237000E38FF6FC138716009355F74113D58501BB
:10238000B305A7000A064A9693F5F50F1307200C2C
:1023900018C214C0898D6395F50297F0FFFFE7809E
:1023A000A03114409C40138716009355F74113D673
:1023B0008501B305C70093F5F50F918DE38FF5FC0B
:1023C000138715001356F741135586013306A700EE
:1023D0008A06CA961376F60F1307D01098C20CC05F
:1023E000098E6395C70297F0FFFFE780E02C0C4051
:1023F0009C40138715001356F74193568601330608
:10240000D7001376F60F158EE30FF6FC13071600B0
:102410009356F74113D58601B306A7008A05CA95DE
:1024200093F6F60F1307001098C110C0898E6395BC
:10243000F60297F0FFFFE780202810409C4013072A
:1024400016009356F74193D58601B306B70093F66D
:10245000F60F8D8EE38FF6FC138716009355F74128
:1024600013D58501B305A7000A064A9693F5F50F23
:102470001307300C18C214C0898D6395B70297F00A
:10248000FFFFE780602314409C401387160093559C
:10249000F74113D68501B305C70093F5F50F918D6C
:1024A000E38FF5FC138715001356F741135586018A
:1024B0003306A7008A06CA961376F60F1307D018BC
:1024C00098C20CC0098E6315F60297F0FFFFE780F3
:1024D000A01E0C409C40138715001356F7419356DD
:1024E00086013306D7001376F60F158EE30FF6FC40
:1024F000130716009356F74113D58601B306A700BC
:102500008A05CA9593F6F60F1307A01698C110C056
:10251000898E6395D70297F0FFFFE780E01910409E
:102520009C40130716009356F74193D58601B306D6
:10253000B70093F6F60F8D8EE38FF6FC1387160027
:102540009355F74113D58501B305A7000A064A96AE
:1025500093F5F50F1307400C18C214C0898D6395CD
:10256000F50297F0FFFFE780201514409C40138789
:1025700016009355F74113D68501B305C70093F5AF
:10258000F50F918DE38FF5FC138715001356F74176
:10259000135586013306A7008A06CA961376F60FEE
:1025A0001307D01898C20CC0098E6395C70297F024
:1025B000FFFFE78060100C409C4013871500135606
:1025C000F741935686013306D7001376F60F158E22
:1025D000E30FF6FC130716009356F74113D5860157
:1025E000B306A7008A05CA9593F6F60F1307E01EF7
:1025F00098C110C0898E6395F60297F0FFFFE780BF
:10260000A00B10409C40130716009356F74193D53A
:102610008601B306B70093F6F60F8D8EE38FF6FCB6
:10262000138716009355F74113D58501B305A7000D
:102630000A064A9693F5F50F1307500C18C214C0FA
:10264000898D6395B70297F0FFFFE780E00614409D
:102650009C40138716009355F74113D68501B305A7
:10266000C70093F5F50F918DE38FF5FC13871500E7
:102670001356F741135586013306A7008A06CA96FA
:102680001376F60F1307E01098C20CC0098E63157D
:10269000F60297F0FFFFE78020020C409C40138772
:1026A00015001356F741935686013306D70013766B
:1026B000F60F158EE30FF6FC130716009356F7413D
:1026C00013D58601B306A7008A05CA9593F6F60FBF
:1026D0001307000E98C110C0898E6395D70297F03A
:1026E000FFFFE78060FD10409C40130716009356E3
:1026F000F74193D58601B306B70093F6F60F8D8E9A
:10270000E38FF6FC138716009355F74113D5850127
:10271000B305A7000A064A9693F5F50F13070011B3
:1027200018C214C0898D6395F50297F0FFFFE7800A
:10273000A0F814409C40138716009355F74113D618
:102740008501B305C70093F5F50F918DE38FF5FC77
:10275000138715001356F741135586013306A7005A
:102760008A06CA961376F60F1307E01098C20CC0BB
:10277000098E6395C70297F0FFFFE780E0F30C40F6
:102780009C40138715001356F74193568601330674
:10279000D7001376F60F158EE30FF6FC130716001D
:1027A0009356F74113D58601B306A7008A05CA954B
:1027B00093F6F60F1307201098C110C0898E639509
:1027C000F60297F0FFFFE78020EF10409C401307D0
:1027D00016009356F74193D58601B306B70093F6DA
:1027E000F60F8D8EE38FF6FC138716009355F74195
:1027F00013D58501B305A7000A064A9693F5F50F90
:102800001307301018C214C0898D6395B70297F072
:10281000FFFFE78060EA14409C4013871600935541
:10282000F74113D68501B305C70093F5F50F918DD8
:10283000E38FF5FC138715001356F74113558601F6
:102840003306A7008A06CA961376F60F1307E01020
:1028500098C20CC0098E6315F60297F0FFFFE7805F
:10286000A0E50C409C40138715001356F741935682
:1028700086013306D7001376F60F158EE30FF6FCAC
:10288000130716009356F74113D58601B306A70028
:102890008A05CA9593F6F60F1307701098C110C0F9
:1028A000898E6395D70297F0FFFFE780E0E0104044
:1028B0009C40130716009356F74193D58601B30643
:1028C000B70093F6F60F8D8EE38FF6FC1387160094
:1028D0009355F74113D58501B305A7000A064A961B
:1028E00093F5F50F1307201018C214C0898D639556
:1028F000F50297F0FFFFE78020DC14409C4013872F
:1029000016009355F74113D68501B305C70093F51B
:10291000F50F918DE38FF5FC138715001356F741E2
:10292000135586013306A7008A06CA961376F60F5A
:102930001307701098C20CC0098E6315F60297F049
:10294000FFFFE78060D70C409C40138715001356AB
:10295000F741935686013306D7001376F60F158E8E
:10296000E30FF6FC130716009356F74113D58601C3
:10297000B306A7008A05CA9593F6F60F1307A010B1
:1029800098C110C0898E6395F60297F0FFFFE7802B
:10299000A0D210409C40130716009356F74193D5E0
:1029A0008601B306B70093F6F60F8D8EE38FF6FC23
:1029B000138716009355F74113D58501B305A7007A
:1029C0000A064A9693F5F50F1307201118C214C092
:1029D000898D6395F50297F0FFFFE780E0CD144005
:1029E0009C40138716009355F74113D68501B30514
:1029F000C70093F5F50F918DE38FF5FC1387150054
:102A00001356F741135586013306A7008A06CA9666
:102A10001376F60F1307701298C20CC0098E631557
:102A2000F60297F0FFFFE78020C90C409C40138717
:102A300015001356F741935686013306D7001376D7
:102A4000F60F158EE30FF6FC130716009356F741A9
:102A500013D58601B306A7008A05CA9593F6F60F2B
:102A60001307701398C110C0898E6395F60297F012
:102A7000FFFFE78060C410409C4013071600935688
:102A8000F74193D58601B306B70093F6F60F8D8E06
:102A9000E38FF6FC138716009355F74113D5850194
:102AA000B305A7000A064A9693F5F50F1307001021
:102AB00018C214C0898D6395F50297F0FFFFE78077
:102AC000A0BF14409C40138716009355F74113D6BE
:102AD0008501B305C70093F5F50F918DE38FF5FCE4
:102AE000138715001356F741135586013306A700C7
:102AF0008A06CA961376F60F1307D01098C20CC038
:102B0000098E6315F60297F0FFFFE780E0BA0C40EC
:102B10009C40138715001356F741935686013306E0
:102B2000D7001376F60F158EE30FF6FC1307160089
:102B30009356F74113D58601B306A7008A05CA95B7
:102B400093F6F60F1307E01098C110C0898E6395B5
:102B5000F60297F0FFFFE78020B610409C40130775
:102B600016009356F74193D58601B306B70093F646
:102B7000F60F8D8EE38FF6FC138716009355F74101
:102B800013D58501B305A7000A064A9693F5F50FFC
:102B90001307001118C214C0898D6395F50297F0D0
:102BA000FFFFE78060B114409C40138716009355E7
:102BB000F74113D68501B305C70093F5F50F918D45
:102BC000E38FF5FC138715001356F7411355860163
:102BD0003306A7008A06CA961376F60F1307100E5F
:102BE00098C20CC0098E6315F60297F0FFFFE780CC
:102BF000A0AC0C409C40138715001356F741935628
:102C000086013306D7001376F60F158EE30FF6FC18
:102C1000130716009356F74113D58601B306A70094
:102C20008A05CA9593F6F60F1307001198C110C0D4
:102C3000898E6395F60297F0FFFFE780E0A71040CA
:102C40009C40130716009356F74193D58601B306AF
:102C5000B70093F6F60F8D8EE38FF6FC1387160000
:102C60009355F74113D58501B305A7000A064A9687
:102C700093F5F50F1307E01018C214C0898D639502
:102C8000F50297F0FFFFE78020A314409C401387D4
:102C900016009355F74113D68501B305C70093F588
:102CA000F50F918DE38FF5FC138715001356F7414F
:102CB000135586013306A7008A06CA961376F60FC7
:102CC0001307301098C20CC0098E6315F60297F0F6
:102CD000FFFFE780609E0C409C4013871500135651
:102CE000F741935686013306D7001376F60F158EFB
:102CF000E30FF6FC130716009356F74113D5860130
:102D0000B306A7008A05CA9593F6F60F130730108D
:102D100098C110C0898E6395F60297F0FFFFE78097
:102D2000A09910409C40130716009356F74193D585
:102D30008601B306B70093F6F60F8D8EE38FF6FC8F
:102D4000138716009355F74113D58501B305A700E6
:102D50000A064A9693F5F50F1307F01018C214C02F
:102D6000898D6395F50297F0FFFFE780E0941440AA
:102D70009C40138716009355F74113D68501B30580
:102D8000C70093F5F50F918DE38FF5FC13871500C0
:102D90001356F741135586013306A7008A06CA96D3
:102DA0001376F60F1307601098C20CC0098E6315D6
:102DB000F60297F0FFFFE78020900C409C401387BD
:102DC00015001356F741935686013306D700137644
:102DD000F60F158EE30FF6FC130716009356F74116
:102DE00013D58601B306A7008A05CA9593F6F60F98
:102DF0001307201098C110C0898E6395F60297F0D2
:102E0000FFFFE780608B10409C401307160093562D
:102E1000F74193D58601B306B70093F6F60F8D8E72
:102E2000E38FF6FC138716009355F74113D5850100
:102E3000B305A7000A064A9693F5F50F130780100D
:102E400018C214C0898D6395F50297F0FFFFE780E3
:102E5000A08614409C40138716009355F74113D663
:102E60008501B305C70093F5F50F918DE38FF5FC50
:102E7000138715001356F741135586013306A70033
:102E80008A06CA961376F60F1307A01098C20CC0D4
:102E9000098E6315F60297F0FFFFE780E0810C4092
:102EA0009C40138715001356F7419356860133064D
:102EB000D7001376F60F158EE30FF6FC13071600F6
:102EC0009356F74113D58601B306A7008A05CA9524
:102ED00093F6F60F1307301198C110C0898E6395D1
:102EE000F60297E0FFFFE780207D10409C4013072B
:102EF00016009356F74193D58601B306B70093F6B3
:102F0000F60F8D8EE38FF6FC138716009355F7416D
:102F100013D58501B305A7000A064A9693F5F50F68
:102F20001307601218C214C0898D6395F50297E0EB
:102F3000FFFFE780607814409C401387160093558C
:102F4000F74113D68501B305C70093F5F50F918DB1
:102F5000E38FF5FC138715001356F74113558601CF
:102F60003306A7008A06CA961376F60F1307601376
:102F700098C20CC0098E6315F60297E0FFFFE78048
:102F8000A0730C409C40138715001356F7419356CD
:102F900086013306D7001376F60F158EE30FF6FC85
:102FA000130716009356F74113D58601B306A70001
:102FB0008A05CA9593F6F60F1307001098C110C042
:102FC000898E6395F60297E0FFFFE780E06E104080
:102FD0009C40130716009356F74193D58601B3061C
:102FE000B70093F6F60F8D8EE38FF6FC138716006D
:102FF0009355F74113D58501B305A7000A064A96F4
:1030000093F5F50F1307D01018C214C0898D63957E
:10301000F50297E0FFFFE780206A14409C40138789
:1030200016009355F74113D68501B305C70093F5F4
:10303000F50F918DE38FF5FC138715001356F741BB
:10304000135586013306A7008A06CA961376F60F33
:103050001307E01098C20CC0098E6315F60297E0C2
:10306000FFFFE78060650C409C40138715001356F6
:10307000F741935686013306D7001376F60F158E67
:10308000E30FF6FC130716009356F74113D586019C
:10309000B306A7008A05CA9593F6F60F1307001129
:1030A00098C110C0898E6395F60297E0FFFFE78014
:1030B000A06010409C40130716009356F74193D52B
:1030C0008601B306B70093F6F60F8D8EE38FF6FCFC
:1030D000138716009355F74113D58501B305A70053
:1030E0000A064A9693F5F50F1307A00318C214C0F9
:1030F000898D6395F50297E0FFFFE780E05B144060
:103100009C40138716009355F74113D68501B305EC
:10311000C70093F5F50F918DE38FF5FC138715002C
:103120001356F741135586013306A7008A06CA963F
:103130001376F60F1307501098C20CC0098E631552
:10314000F60297E0FFFFE78020570C409C40138772
:1031500015001356F741935686013306D7001376B0
:10316000F60F158EE30FF6FC9306160013D7F64103
:10317000135587013387A6008A05CA951377F70F81
:103180009306600394C110C0098F6315F70297E09E
:10319000FFFFE780605210409C409306160013D753
:1031A000F641935587013387B6001377F70F0D8FDC
:1031B000E30FF7FC9305170093D6F54113D586016D
:1031C000B386A5000A064A9693F6F60F9305801774
:1031D0000CC218C0898E6395F60297E0FFFFE78066
:1031E000A04D18408C409307170093D6F74113D693
:1031F0008601B386C70093F6F60F918EE38FB6FC77
:1032000014C0F24062440A074A97930790021CC315
:10321000D2444249B2490561828097E0FFFFE780CE
:10322000A0490C409C40138715009356F74113D6D4
:103230008601B306C70093F6F60F918EE38FF6FC76
:103240008A05CA951307100298C114C039A097E0E7
:10325000FFFFE780604614409C401387160093559B
:10326000F74113D68501B305C70093F5F50F918D8E
:10327000E38FF5FC6FE0DFA2411126C29306F00454
:10328000AA841306F009814501454AC006C622C436
:103290001309000A97E0FFFFE780006013040005B0
:1032A0007D14268597E0FFFFE780605175F87D1952
:1032B000E31609FEB2402244924402494101828051
:1032C000411122C4AE8632842A8606C697E0FFFFEB
:1032D000E780805C22852244B240410117E3FFFF72
:1032E0006700E34D79714ECE52CC5AC85EC662C4B7
:1032F00066C206D622D426D24AD056CA6AC0330B3A
:10330000A6403A8CB38BB640AA892E8A854C635866
:103310006007054D635E70075A8463537B015E84CA
:1033200001498144814AD2864E86D2854E8597E0F6
:10333000FFFFE78060566285DA9497E0FFFFE78041
:1033400000485E9963549400818CE699635524018A
:10335000330989406A9A93871A0063848A00BE8A77
:10336000D9B7B250225492540259F249624AD24A11
:10337000424BB24B224C924C024D45618280814CB3
:10338000E3090BF8330B6041FD5C054DE34670F932
:10339000014DE3830BF8B30B70417D5DB5BF0111A7
:1033A00041674EC67D1793060005014681450145DC
:1033B000C16922CC26CA4AC806CE01449700000043
:1033C000E78080F21389F9FF9304A005A286A28505
:1033D0000545054697E0FFFFE780004C29044A8534
:1033E00097E0FFFFE780A03DE31294FE1387F9FF0B
:1033F000930680021306000A930580020145C1640A
:1034000097000000E78040EE0144FD141309A00A74
:1034100022852286930690029305900297E0FFFF93
:10342000E78080472904268597E0FFFFE780203961
:10343000E31024FFF2406244D2444249B24905619C
:10344000828000000000000000000000000000007A
:10345000000000000000000000000000000000006C
:10346000000000000000000000000000000000005C
:10347000000000000000000000000000000000004C
:103480005D7106C012C216C41AC61EC82ACA2ECC46
:1034900032CE36D03AD23ED442D646D872DA76DC34
:1034A0007ADEFEC0F322103496C0F322003096C2BA
:1034B000F322407C96C4732520348A8597E0FFFF71
:1034C000E78040A586427390123496427390023092
:1034D000A6427390427C82401242A2423243C243CF
:1034E0005245E245724682561257A2573258C25888
:1034F000525EE25E725F864F6161730020300000B1
:10350000000000005D7106C012C216C41AC61EC8B3
:103510002ACA2ECC32CE36D03AD23ED442D646D863
:1035200072DA76DC7ADEFEC073D0E87E7350F97E04
:1035300073D0B97EF390D07E73700430B64273902E
:10354000427CA64273901234964273902234824099
:103550001242A2423243C2435245E245724682566B
:103560001257A2573258C258525EE25E725F864FBF
:10357000616173002030797113D8450126D24ECE97
:1035800052CC5AC85EC69394C50006D622D44AD0FF
:1035900056CA1378F87F2A8BB28B368AB18093D9BA
:1035A000F501630408089307F07F630EF80C935A43
:1035B000D5018E04B3E49A00B70A8000B3EA54013F
:1035C00013143500130918C0014B13554A01931405
:1035D000CA001378F57FB180135AFA016308080C0A
:1035E0009307F07F6301F8121395340093D7DB0142
:1035F0005D8DB7048000C98C139F3B00130518C074
:10360000814713172B005D8F7D17B94633C64901DB
:103610003308A94063EBE61097D6FFFF938686D563
:103620000A073697184336970287B3EAA4006386E1
:103630000A068DCC268597100000E78060B89307B6
:1036400055FF7147634BF702F54A130485FFB38AB0
:10365000FA40B3948400B35A5B01B3EA9A0033147E
:103660008B001308D0C03309A840B9BF97100000E1
:10367000E78000B513050502D9B7930485FDB31A99
:103680009B000144F9BFB3EAA400638C0A002A84BA
:10369000A68A1309F07F0D4B0DBF01440149054B6C
:1036A0002DB701441309F07F094B05B733EF7401BF
:1036B00063040F069DC8268597100000E78040B080
:1036C000930755FF7147634AF7027547130F85FF4C
:1036D0001D8FB394E40133D7EB00D98C339FEB01FA
:1036E0001306D0C03305A64021BF5E8597100000A9
:1036F000E78000AD13050502E1B7930485FDB3949F
:103700009B00014FF1BF33EF7401630B0F005E8F1D
:103710001305F07F8D47F5B5814401458547D5B543
:1037200081441305F07F8947E9BD63E65401639343
:103730009A2A6361E42B9396FA01135714009317A6
:10374000F40193DA1A0033E4E600139584009354ED
:103750008F01458D135E0501B3D8CA03131305010C
:10376000135303011357040193158F00B3F4CA03D5
:10377000C68FB3061303939A040133675701637C22
:10378000D7002A97938FF8FF6367A7006375D70068
:10379000938FE8FF2A97158FB35EC70342044180D9
:1037A0003377C703F686B308D3034207418F637CA0
:1037B00017012A979386FEFF6367A70063751701B9
:1037C0009386EEFF2A97C20FB3EFDF00C166330482
:1037D00017419388F6FF13DF0F0133F71F0193DEC4
:1037E0000501B3F81501B3031703B3041F033387AF
:1037F000EE02B302DF03330F970013D703017A976A
:1038000063739700B692135F0701169FC162FD12A2
:10381000B3765700C206B3F353009E966367E40184
:10382000FE84631EE40363FCD702AE9733B7B70090
:103830002A973A949384FFFF63668500631185029B
:1038400063EFB7006366E401631B8F0063F9D70081
:10385000AE9733B7B7002A979384EFFF3A94B386B5
:10386000D7403304E441B3B7D7001D8C7D5F6305B7
:10387000850E335FC40313D706013374C403B30743
:10388000E3034204598C7A87637CF4002A9413077B
:10389000FFFF6367A4006375F4001307EFFF2A942A
:1038A0001D8C335FC403C206C1823374C403FA871C
:1038B0003303E3034204558C637C64002A9493072A
:1038C000FFFF6367A400637564009307EFFF2A940A
:1038D00042075D8F93170701C1833304644013537C
:1038E0000701338E1703B308130333836E02B38EBD
:1038F000FE0293570E01C69EF69763F41701C16648
:10390000369393D807019A9841637D13B3F6670005
:10391000C206337E6E00F29663661401631E1419AC
:103920003A8F9DCA2A94130FF7FF6361A40263665E
:1039300014016312141963FDD50093971500B3B5F4
:10394000B7002E95130FE7FF2A94BE856314140168
:103950006384B600136F1F001307F83F6357E00A34
:1039600093777F0081CF9377FF0091466388D700DC
:1039700093064F0033BFE601FA94368F9397740095
:1039800063D80700B70700FFFD17FD8C1307084039
:103990009307E07F63C8E710135F3F009397D4015C
:1039A000B3E7E70113D5340032051377F77F5207E9
:1039B000B25022543181598D7E063367C50092542E
:1039C0000259F249624AD24A424BB24B3E85BA850D
:1039D000456182807D1881478DBB4E86D684228FBB
:1039E000DA8709476380E70C0D476386E70A0547D6
:1039F000E394E7F60145814785A85286DDB7B70411
:103A00000800014F01468D47E9BF0545198D930711
:103A10008003E3C1A7FEFD4763CAA7041308E8417A
:103A2000B39704013357AF0033180F01D98F3338E0
:103A30000001B3E7070133D5A40013F7770001CFE6
:103A400013F7F70091466308D70013874700B33791
:103A5000F7003E95BA8713178500634A07041317CA
:103A6000D5018D83D98F0D8101473DBF8557998F32
:103A700093060002B3D7F40001476306D50013088C
:103A8000E84333970401336FE701333FE001B3E7C5
:103A9000E70101455DB73705080081471307F07F4F
:103AA000014619B7014581471307F07FF5BD014570
:103AB00081470547D5BD7A873A8F69BD13D845013F
:103AC000B7071000FD1713D746011378F87F930E40
:103AD000F07FB3F8B7002A83F58FFD81328E13771C
:103AE000F77FFD826318D801B3EEA80063850E0648
:103AF00089450DA86316D701B3EEC700E39A0EFE01
:103B0000631D080433E5A8001335150019E35D8E25
:103B100015CE11E5638AD50085C9FD5521A0FD5557
:103B200091C2B6852E858280E34807FF6354E80082
:103B3000F5F9E5B7E3E217FF639CF800E36E6EFC6E
:103B4000E368C3FF8145F9BF8545E9BF65FDE9B776
:103B5000E3E0F8FEC5BFE30107FB4DFF014545BFAC
:103B600079714ECE93D9450122D426D252CC56CA71
:103B70005AC89394C50006D64AD05EC693F9F97F19
:103B80002A84328BB68AB18013DAF5016381090881
:103B90009307F07F6389F90C9357D5018E04DD8C70
:103BA000B7078000DD8C13193500938919C0814B4C
:103BB00013D54A011394CA001375F57F318093DA47
:103BC000FA0161C59307F07F630DF5109357DB0190
:103BD0000E045D8CB70780005D8C130515C093172C
:103BE0003B00014793962B00D98E4E95FD16B945A3
:103BF00033465A011308150063E6D51097C5FFFF39
:103C00009385057B8A06AE969442AE96828633E90A
:103C1000A400630309069DC8268597000000E7807D
:103C2000205A130755FFF14763C9E702F547130907
:103C300085FF998FB3942401B357F400DD8C3319B9
:103C400024019309D0C0B389A94095B7970000001B
:103C5000E780005713050502E9B7930485FDB31407
:103C600094000149F9BF33E9A400630B09002A89D4
:103C70009309F07F8D4B2DBF81448149854B0DBF4A
:103C800081449309F07F894B25B7B3676401B5C3BD
:103C90001DC8228597000000E7808052930655FFDB
:103CA000F14763CAD7027547930785FF158F331411
:103CB000F4003357EB00598CB317FB001307D0C047
:103CC0003305A74039BF5A8597000000E780404F71
:103CD00013050502E1B7130485FD33148B008147FA
:103CE000F1BFB367640191CBDA871305F07F0D470D
:103CF000D5BD014401450547F5B501441305F07FE5
:103D00000947CDB5416F930EFFFF1357090193D8B3
:103D100007013379D901B3F7D701B3852803B386F7
:103D20002703B30FF7023383F50193D506019A9564
:103D3000330E170363F3F5017A9E93D30501B3F5B0
:103D4000D501B3F6D601135F0401B372D401C205E5
:103D5000B695B30E5702B386220333092F033303FC
:103D6000D90113D906011A993307E7036374D901FE
:103D700041631A97935E0901C169BA9E1387F9FFDF
:103D80003379E900F98E13D404014209F98C36998C
:103D900033879702CA933303F402B3869802B3873A
:103DA0008802B388660093560701C69663F36600DF
:103DB000CE9793D80601C169B38FF8009387F9FFB6
:103DC000FD8E7D8FB3889202C206BA96B307540265
:103DD000B3049F0233038F02BE9413D40801A2944C
:103DE00063F3F4004E93C167FD1733F7F400B3F8A3
:103DF000F80042071E9E469733392E01769733040A
:103E00002701369EB336DE00B308F401338FD800A5
:103E10003337D70133342401598CC180B3B8F8014A
:103E2000B336DF002694B3E6D80036941A9493573D
:103E30007F0126045D8C93179E00CD8FB337F00071
:103E4000135E7E0113179F00B3E7C701D98F1317C5
:103E500074006358070A13D71700858BD98F13177F
:103E6000F401D98F05809306F83F635ED00813F7FD
:103E7000770001CF13F7F70091456308B700138768
:103E80004700B337F7003E94BA871317740063589E
:103E90000700370700FF7D17798C9306084013074A
:103EA000E07F634CD70E13D737009317D401D98F17
:103EB0000D80320413F7F67F52073180598C7E064D
:103EC0003367C400B250225492540259F249624AF4
:103ED000D24A424BB24B3E85BA85456182805286BA
:103EE0002684CA875E8789466309D70A8D46630F91
:103EF000D7088546E319D7F6014481479DA0568629
:103F0000DDB72A888DB78545958D13078003E34576
:103F1000B7FE7D476349B7041308E841331704012E
:103F2000B3D6B700B3970701558FB337F000D98FD9
:103F30003354B40013F7770001CF13F7F70091461D
:103F40006308D70013874700B337F7003E94BA875A
:103F500013178400634807041317D4018D83D98F86
:103F60000D808146B9B70557158F130500023357E9
:103F7000E40081466386A5001308E843B3160401F4
:103F8000D58FB337F000D98F01446DB737040800DF
:103F900081479306F07F014629BF0144814793067C
:103FA000F07F01BF01448147854621B7411122C4FA
:103FB00006C62A8421C597000000E7806020130709
:103FC000E041A947098F63C6A702AD47898F550510
:103FD000B357F4003314A4002285B2402244B20740
:103FE0001377F77F5207B183B3E6E700B685410147
:103FF00082805515B317A4000144F9BF81470147DA
:10400000E1BF011106CE22CC26CA4AC84EC652C410
:10401000B367B500638607142A842E89AE84BDC5B4
:104020002E8597000000E780A019AA89130AE043B3
:10403000330A3A419307304363C74707AD472285A8
:1040400063D337039307A00263C937059305B00212
:10405000938759FFB3853541B355B400B314F900C4
:10406000CD8C3315F4009395C400F2406244137A6A
:10407000FA7F520AB181B3E745012A87D244424907
:10408000B249224A3A85BE850561828097000000C8
:10409000E78000139309050251BF938559FDB314BE
:1040A000B4000145C9B79307604363D9470313863A
:1040B00089032285CA8597000000E780C00DC98D5D
:1040C0002146B334B0002285CA85330636419700B5
:1040D0000000E780A00933E4A4002E89A1472285CF
:1040E00063D437039307700263C6370793058002D2
:1040F000938789FFB38535413319F900B355B4006F
:1041000033E925013315F400B70780FFFD17B375B8
:10411000F9009377750081CF9377F5001147638895
:10412000E7009307450033B5A700AA953E8593970E
:10413000850063DA0700B70780FFFD17130AF04315
:10414000FD8D330A3A410D819397D5015D8D93D44E
:10415000350011BF138989FD3319240101456DB75D
:1041600081440145014A01B701CE93070002918FB6
:104170006349F000130506FE014733D5A500BA8553
:10418000828033D7C5003355C500B395F5004D8DFA
:10419000FDB701CE93070002918F6349F0009305AC
:1041A00006FE0147B315B5003A8582803317C50076
:1041B000B395C5003355F500C98DFDB7C16763766A
:1041C000F5029307F00FB3B7A7008E07130700029D
:1041D0001D8FB357F50017C5FFFF13052521AA97BB
:1041E00003C507003305A740828037070001C14798
:1041F000E36EE5FCE147D9BFAA858146014601454A
:1042000017030000670043134111814522C406C60D
:104210002A8497000000E780401997C7FF1793870B
:10422000672188435C5D91C38297228597D0FFFF09
:10423000E78040C0411122C49707000093874723BD
:10424000170400001304C4221D8C06C626C209846C
:1042500011C893142400F114BE949C407D14F114F1
:10426000829765FCB2402244924441018280411110
:1042700022C44AC0170400001304441F1709000099
:104280001309C91E3309894006C626C2135929409D
:104290006309090081441C40850411048297E31CD2
:1042A00099FE170400001304641C17090000130989
:1042B000291C3309894013592940630909008144A5
:1042C0001C40850411048297E31C99FEB2402244ED
:1042D000924402494101828097C7FF17938747158F
:1042E000B2862E86AA8588431703000067008300E4
:1042F000AE87411122C4B2852A8436863E8506C621
:1043000097D7FF1723A8079497D0FFFFE78060ADEA
:10431000FD576306F500B24022444101828097D7E1
:10432000FF17938727939C43FDD71CC0B2402244BC
:104330004101828097C7FF179387C70F9843832750
:104340008714A1C3D8437D48634DE80413182700A0
:104350001DC1338307012324C30883A8871805469A
:104360003316E600B3E8C80023A417192324D3109A
:104370008946630DD5000507D8C3C2978CC7014590
:1043800082809307C7142324F7146DBF83A6C71830
:104390000507D8C3558E23A6C718C2978CC70145F9
:1043A00082807D558280797197C7FF179387870830
:1043B00062C403AC07004ECE52CC56CA5AC806D6C9
:1043C00022D426D24AD05EC6AA8A2E8B054AFD592F
:1043D00003298C1463040902832449001384F4FF25
:1043E000634E04008A04CA9463060B0283A7441038
:1043F000638267037D14F114E31834FFB250225432
:1044000092540259F249624AD24A424BB24B224C70
:104410004561828083274900D440FD17638087046B
:1044200023A20400E1DA8327891833178A00832B3B
:104430004900F98F99EB829683274900E39A77F92F
:1044400083278C14E38827FB61B78327C91883A5CA
:1044500044087D8F19E756858296F9BF232289008B
:08446000D1B72E858296C9BF79
:0444680094060008AE
:10446C0000000000EC02002054030020BC030020DC
:10447C000000000000000000000000000000000030
:10448C000000000000000000000000000000000020
:10449C000000000000000000000000000000000010
:1044AC000000000000000000000000000000000000
:1044BC0000000000000000000000000000000000F0
:1044CC0000000000000000000000000000000000E0
:1044DC0000000000000000000000000000000000D0
:1044EC0000000000000000000000000000000000C0
:1044FC0000000000000000000000000000000000B0
:10450C00000000000000000001000000000000009E
:10451C000E33CDAB34126DE6ECDE05000B00000063
:10452C00000000000000000000000000000000007F
:10453C00000000000000000000000000000000006F
:10454C00000000000000000000000000000000005F
:10455C00000000000000000000000000000000004F
:10488C00000000000000000000F36F060000002094
:04489C0000000020F8
:040000050800015C92
:00000001FF
